S00D000046696E616C2E737265632D
S11300000C9434000C9451000C9451000C94510045
S11300100C9451000C9451000C9451000C94510018
S11300200C9451000C9451000C9451000C940B0549
S11300300C9451000C9451000C9451000C945100F8
S11300400C9451000C9451000C9451000C945100E8
S11300500C9451000C9451000C9451000C945100D8
S11300600C9451000C94510011241FBECFEFD8E022
S1130070DEBFCDBF11E0A0E0B1E0ECEEF4E102C0E0
S113008005900D92A436B107D9F721E0A4E6B1E0BA
S113009001C01D92A63CB207E1F70E9472040C94C1
S11300A0740A0C940000CF92DF92EF92FF92E4E680
S11300B0F0E020812F772083442319F04130C1F0F0
S11300C02EC00E94660620E030E040E05FE30E941C
S11300D01D0720E030E543EC57E40E94C50520E00D
S11300E030E040E051E40E9453056B017C011AC0EA
S11300F00E94660620E030E040E05FE30E941D07B6
S113010020E030E543EC58E40E94C50520E030E0EF
S113011040E051E40E9453056B017C0103C0C12CF3
S1130120D12C760120E030E040E85FE3C701B6015E
S11301300E94C0058823C4F020E030E04FE753E478
S1130140C701B6010E94180718168CF0C701B60142
S11301500E9437066093B800ECEBF0E08081846085
S1130160808380E090E005C08FEF9FEF02C08FEFA7
S11301709FEFFF90EF90DF90CF90089594EA9093D3
S1130180BC009091BC009923E4F79091B900987F4A
S1130190983029F09091B900987F903149F5672BF8
S11301A0A9F090E0880F991F81608093BB0084E8D8
S11301B08093BC008091BC008823E4F78091B9004F
S11301C0887F8034C1F08EEF9FEF0895880F80936D
S11301D0BB0084E88093BC008091BC008823E4F7D2
S11301E08091B900887F883149F08EEF9FEF0895A0
S11301F08FEF9FEF089580E090E0089580E090E015
S11302000895FC016115710521F084EC8093BC0014
S113021003C084E88093BC009091BC009923E4F768
S1130220672B31F09091B900987F903531F014C06C
S11302309091B900987F983591F48091BB008083A8
S1130240452B81F084E98093BC008091BC0084FD3F
S1130250FCCF80E090E008958DEF9FEF08958DEF3F
S11302609FEF089580E090E008958093BB0084E8B8
S11302708093BC008091BC008823E4F78091B9008E
S1130280887F883261F4672B69F084E98093BC002D
S11302908091BC0084FDFCCF80E090E008958DEF58
S11302A09FEF089580E090E00895CF93C82F60E019
S11302B070E087E20E94BE00892B51F461E070E097
S11302C08C2F0E943501009729F08EEF9FEF02C01A
S11302D08FEF9FEFCF910895CF93DF93EC0161E00F
S11302E070E087E20E94BE00892B61F441E050E097
S11302F060E070E0CE010E940101009729F08EEFCA
S11303009FEF02C08FEF9FEFDF91CF9108958FE4AD
S113031093EC0197F1F700C00000089586E08A95F8
S1130320F1F700C008958091C5010E94550100971E
S113033011F08FEF9FEF089585EC91E00E946C011E
S1130340009711F08FEF9FEF08950F931F93CF93B2
S11303508091C501806F8B7F82608E7F8093C50101
S11303600E949301892B09F043C00E948E01809161
S1130370C50184608093C5010E949301892BD9F53E
S11303800E948E010E949C01892BC1F58091C501B8
S1130390982F92959F70C92FC870806F8B7F88604B
S11303A08093C5010E949301892B59F50E948E0107
S11303B08091C50184608093C5010E949301892BBB
S11303C019F50E948E010E949C01892B01F58091F0
S11303D0C501806F8B7F88608093C5010E94930163
S11303E08C01892BB9F40E948E01C111C0CF14C0B5
S11303F00FEF1FEF11C00FEF1FEF0EC00EEF1FEF37
S11304000BC00FEF1FEF08C00FEF1FEF05C00EEF7B
S11304101FEF02C00FEF1FEFC801CF911F910F9183
S11304200895CF93DF93C82F0E94A5019C2F907F3E
S11304308091C5018F70892B84608D7F8E7F80931E
S1130440C5010E949301892B49F50E948E01809178
S1130450C5018B7F8093C5010E949301892B09F507
S11304600E948E01C295C07F8091C5018F70C82BF8
S1130470C460C093C5010E949301892BA9F40E9412
S11304808E018091C5018B7F8093C5010E949301E9
S1130490EC01892B61F40E948E010BC0CFEFDFEFDA
S11304A008C0CFEFDFEF05C0CFEFDFEF02C0CFEF23
S11304B0DFEFCE01DF91CF910895CF93DF93C82F63
S11304C00E94A5019C2F907F8091C5018F70892B7C
S11304D084608D7F81608093C5010E949301892B84
S11304E049F50E948E018091C5018B7F8093C501DF
S11304F00E949301892B09F50E948E01C295C07F49
S11305008091C5018F70C82BC460C093C5010E943F
S11305109301892BA9F40E948E018091C5018B7FE0
S11305208093C5010E949301EC01892B61F40E9420
S11305308E010BC0CFEFDFEF08C0CFEFDFEF05C0B8
S1130540CFEFDFEF02C0CFEFDFEFCE01DF91CF912E
S11305500895CF93DF938BEF8093C5010E9493019D
S1130560892B09F04BC00E948701C0E0D0E01AC07B
S11305708091C5018F7084638D7F8E7F8093C501C8
S11305800E949301892BE9F50E9487018091C5019E
S11305908B7F8093C5010E949301892BA9F50E944A
S11305A087012196C230D1051CF38091C5018F705B
S11305B0806284608093C5010E949301892B39F580
S11305C00E9487018091C5018B7F8093C5010E94A1
S11305D09301EC01892BF1F40E94870188E20E94C7
S11305E011028CE00E94110286E00E94110282E056
S11305F00E94110281E00E9411020EC0CFEFDFEFD2
S11306000BC0CFEFDFEF08C0CFEFDFEF05C0CFEFB8
S1130610DFEF02C0CFEFDFEFCE01DF91CF9108957E
S1130620643098F4843188F4662331F0613031F019
S1130630623031F494E105C090E003C090E401C05D
S113064094E5890F80680E9411020895CF93DF9387
S1130650EC0103C00E945D02219688818111FACFCA
S1130660DF91CF910895CF93DF93643040F48431C8
S113067030F4EA010E941003CE010E942603DF91A8
S1130680CF91089581E00E9411020895E4E6F0E01C
S11306909081977F9083E1E8F0E010829081892B2C
S11306A080838091840090918500680F791F7093F6
S11306B089006093880082E080936F0008958FEF33
S11306C084B984B18D7F84B984B18B7F84B985B1B9
S11306D0826085B985B1846085B908950F931F93AD
S11306E0CF93DF93CDB7DEB7C055D1090FB6F894D9
S11306F0DEBF0FBECDBF8091C1019091C201A09118
S1130700C301B091C4010597A105B10508F45BC00C
S11307101092C1011092C2011092C3011092C4013F
S11307208E010F5F1F4F80E5F80111928A95E9F75A
S11307308091BC018F938091BB018F938091BA010A
S11307408F938091B9018F938091B8018F93809199
S1130750B7018F9380E091E09F938F931F930F9342
S11307600E948A07A80160E080E00E943303809120
S1130770B6010FB6F894DEBF0FBECDBF811105C020
S113078046E151E061E00E9433038091B60181307B
S113079031F446E251E061E080E00E94330380914D
S11307A0B601823031F446E351E061E080E00E941A
S11307B033038091B601833031F446E451E061E0C3
S11307C080E00E943303C05BDF4F0FB6F894DEBFB6
S11307D00FBECDBFDF91CF911F910F9108958091EE
S11307E0BD019091BE01A091BF01B091C0010A97D3
S11307F0A105B105B8F11092BD011092BE0110928D
S1130800BF011092C0018BB180688BB98091BB018C
S11308109091BC0101969093BC018093BB01CC974D
S113082068F01092BC011092BB018091B9019091C3
S1130830BA0101969093BA018093B9018091B901EC
S11308409091BA01CC9788F01092BA011092B90134
S11308508091B7019091B80101969093B80180936B
S1130860B70103C08BB18F778BB90E946E030895D3
S11308700E946E0308951092BC011092BB01109265
S1130880BA011092B9011092B8011092B7010E94F6
S11308906E03089523B130E002C0359527958A95FB
S11308A0E2F781E020FD80E090E00895CF93DF93AC
S11308B0EC01862F0E944A04892B49F0888181111A
S11308C003C081E088830AC082E0888307C08881EE
S11308D0823019F483E0888301C018828881DF9113
S11308E0CF9108950E945F0364ED70E383E00E945A
S11308F04603E1E6F0E080E8808381E080838AB10A
S113090080688AB940E060E072E18AE790E00E9482
S1130910530083B7816083BF60E072E18AE790E0AF
S11309200E94A90278940E9442038091BC018F9393
S11309308091BB018F938091BA018F938091B9010B
S11309408F938091B8018F938091B7018F9380E04A
S113095091E09F938F9386E691E09F938F930E94FB
S11309608A0746E651E060E080E00E94330346E5F2
S113097051E061E080E00E9433038DB79EB70A9690
S11309800FB6F8949EBF0FBE8DBF88958091B601B7
S1130990811109C061E085E691E00E94560481302E
S11309A011F48093B6018091B601823089F08330CE
S11309B029F1813051F70E94EF0362E084E691E06F
S11309C00E945604813009F782E08093B601DDCF9E
S11309D061E085E691E00E945604813011F4809331
S11309E0B60162E084E691E00E945604813019F475
S11309F083E08093B6010E943804C7CF0E943B0471
S1130A0061E085E691E00E945604813009F0BDCF93
S1130A108093B601BACF1F920F920FB60F92112492
S1130A208F939F93AF93BF93EF93FF93E8E8F0E026
S1130A30808191818C529F4C918380838091C101EC
S1130A409091C201A091C301B091C4010196A11D6E
S1130A50B11D8093C1019093C201A093C301B093CF
S1130A60C4018091B601813099F48091BD019091C7
S1130A70BE01A091BF01B091C0010196A11DB11D9D
S1130A808093BD019093BE01A093BF01B093C001B8
S1130A90FF91EF91BF91AF919F918F910F900FBEF6
S1130AA00F901F9018955058BB27AA270E946B05DA
S1130AB00C94DE060E94D00638F00E94D70620F07F
S1130AC039F49F3F19F426F40C94CD060EF4E09506
S1130AD0E7FB0C94C706E92F0E94EF0658F3BA17F8
S1130AE0620773078407950720F079F4A6F50C9440
S1130AF011070EF4E0950B2EBA2FA02D0B01B901AE
S1130B0090010C01CA01A0011124FF27591B99F07F
S1130B10593F50F4503E68F11A16F040A22F232F8B
S1130B20342F4427585FF3CF469537952795A795DB
S1130B30F0405395C9F77EF41F16BA0B620B730B82
S1130B40840BBAF09150A1F0FF0FBB1F661F771FF3
S1130B50881FC2F70EC0BA0F621F731F841F48F4A8
S1130B60879577956795B795F7959E3F08F0B0CF31
S1130B709395880F08F09927EE0F97958795089518
S1130B800E94A30608F481E008950E94D9050C94FC
S1130B90DE060E94D70658F00E94D00640F029F4E1
S1130BA05F3F29F00C94C70651110C9412070C9462
S1130BB0CD060E94EF0668F39923B1F3552391F310
S1130BC0951B550BBB27AA2762177307840738F0B8
S1130BD09F5F5F4F220F331F441FAA1FA9F335D015
S1130BE00E2E3AF0E0E832D091505040E695001CC9
S1130BF0CAF72BD0FE2F29D0660F771F881FBB1F83
S1130C00261737074807AB07B0E809F0BB0B802D60
S1130C10BF01FF2793585F4F3AF09E3F510578F08C
S1130C200C94C7060C9412075F3FE4F3983ED4F388
S1130C30869577956795B795F7959F5FC9F7880F60
S1130C40911D9695879597F90895E1E0660F771FB2
S1130C50881FBB1F621773078407BA0720F0621B43
S1130C60730B840BBA0BEE1F88F7E09508950E946E
S1130C70F70688F09F5798F0B92F9927B751B0F02D
S1130C80E1F0660F771F881F991F1AF0BA95C9F70C
S1130C9014C0B13091F00E941107B1E008950C9492
S1130CA01107672F782F8827B85F39F0B93FCCF345
S1130CB0869577956795B395D9F73EF49095809589
S1130CC0709561957F4F8F4F9F4F0895E89409C0A9
S1130CD097FB3EF490958095709561957F4F8F4F6B
S1130CE09F4F9923A9F0F92F96E9BB279395F69581
S1130CF0879577956795B795F111F8CFFAF4BB0FFF
S1130D0011F460FF1BC06F5F7F4F8F4F9F4F16C062
S1130D10882311F096E911C0772321F09EE8872FEC
S1130D20762F05C0662371F096E8862F70E060E0A8
S1130D302AF09A95660F771F881FDAF7880F969521
S1130D40879597F90895990F0008550FAA0BE0E8C5
S1130D50FEEF16161706E807F907C0F01216130679
S1130D60E407F50798F0621B730B840B950B39F4B9
S1130D700A2661F0232B242B252B21F408950A261F
S1130D8009F4A140A6958FEF811D811D089597F95F
S1130D909F6780E870E060E008959FEF80EC08951D
S1130DA000240A9416161706180609060895002446
S1130DB00A9412161306140605060895092E0394C0
S1130DC0000C11F4882352F0BB0F40F4BF2B11F434
S1130DD060FF04C06F5F7F4F8F4F9F4F089557FD93
S1130DE09058440F551F59F05F3F71F04795880F95
S1130DF097FB991F61F09F3F79F08795089512162C
S1130E0013061406551FF2CF4695F1DF08C01616D7
S1130E1017061806991FF1CF869571056105089488
S1130E200895E894BB2766277727CB0197F908959F
S1130E300E94A30608F48FEF08950E9430070C94D3
S1130E40DE060E94D00638F00E94D70620F09523D3
S1130E5011F00C94C7060C94CD0611240C941207BF
S1130E600E94EF0670F3959FC1F3950F50E0551F54
S1130E70629FF001729FBB27F00DB11D639FAA27EB
S1130E80F00DB11DAA1F649F6627B00DA11D661F3A
S1130E90829F2227B00DA11D621F739FB00DA11D5B
S1130EA0621F839FA00D611D221F749F3327A00D15
S1130EB0611D231F849F600D211D822F762F6A2FB1
S1130EC011249F5750409AF0F1F088234AF0EE0F16
S1130ED0FF1FBB1F661F771F881F91505040A9F743
S1130EE09E3F510580F00C94C7060C9412075F3F97
S1130EF0E4F3983ED4F3869577956795B795F7957F
S1130F00E7959F5FC1F7FE2B880F911D96958795F6
S1130F1097F90895AEE0B0E0E0E9F7E00C944B0AED
S1130F200D891E8986E08C831A8309838FEF9FE7DE
S1130F309E838D83AE01475E5F4F6F89788DCE01AE
S1130F4001960E94AC07EF81F885E00FF11F108233
S1130F502E96E4E00C94670AABE0B0E0E2EBF7E035
S1130F600C943D0A6C017B018A01FC0117821682F4
S1130F70838181FFCCC1CE0101963C01F6019381AE
S1130F80F70193FD859193FF81917F01882309F4F3
S1130F90BAC1853239F493FD859193FF81917F0124
S1130FA0853229F4B60190E00E94A309E7CF912C81
S1130FB0212C312CFFE1F315D8F08B3279F038F481
S1130FC0803279F08332A1F4232D20611DC08D324B
S1130FD061F0803369F4232D216016C0832D826073
S1130FE0382EE32DE4603E2E2AC0F32DF8601DC098
S1130FF037FC2DC020ED280F2A3040F08E32B9F492
S113100036FC81C1232D2064322E19C036FE06C061
S11310108AE0989E200D1124922E11C0EAE02E9EA3
S1131020200D1124222EF32DF0623F2E08C08C36A1
S113103021F4832D8068382E02C0883641F4F701EC
S113104093FD859193FF81917F018111B3CF982FF7
S11310509F7D9554933028F40C5F1F4F9FE3998331
S11310600DC0833631F0833771F0833509F059C0F0
S113107021C0F801808189830E5F1F4F88248394E7
S1131080912C530113C02801F2E04F0E511CF801BA
S1131090A080B18036FE03C0692D70E002C06FEFFE
S11310A07FEFC5010E9498094C018201F32DFF775F
S11310B03F2E16C0280122E0420E511CF801A080E8
S11310C0B18036FE03C0692D70E002C06FEF7FEF80
S11310D0C5010E948D094C01F32DF0683F2E820159
S11310E033FC1BC0822D90E088169906B0F4B6013B
S11310F080E290E00E94A3092A94F4CFF50137FC22
S1131100859137FE81915F01B60190E00E94A309A9
S113111021102A9421E0821A91088114910471F714
S1131120E8C0843611F0893641F5F80137FE07C06E
S113113060817181828193810C5F1F4F08C060813F
S11311407181072E000C880B990B0E5F1F4FF32D36
S1131150FF763F2E97FF09C0909580957095619515
S11311607F4F8F4F9F4FF0683F2E2AE030E0A3015E
S11311700E94DF09882E861845C0853731F4232D57
S11311802F7EB22E2AE030E025C0932D997FB92E10
S11311908F36C1F018F4883579F0B5C0803719F06E
S11311A0883721F0B0C0E92FE061BE2EB4FE0DC037
S11311B0FB2DF460BF2E09C034FE0AC0292F26601F
S11311C0B22E06C028E030E005C020E130E002C0C5
S11311D020E132E0F801B7FE07C0608171818281AD
S11311E093810C5F1F4F06C06081718180E090E0A5
S11311F00E5F1F4FA3010E94DF09882E8618FB2D66
S1131200FF773F2E36FE0DC0232D2E7FA22E89148C
S113121058F434FE0BC032FC09C0832D8E7EA82EF8
S113122005C0B82CA32C03C0B82C01C0B92CA4FE53
S11312300FC0FE01E80DF11D8081803321F49A2D49
S1131240997EA92E09C0A2FE06C0B394B39404C02B
S11312508A2D867809F0B394A3FC11C0A0FE06C0C1
S1131260B21488F4280C922C9B180EC0B21460F4AB
S1131270B60180E290E00E94A309B394F7CFB214C0
S113128018F42B1802C0982C212CA4FE10C0B6010F
S113129080E390E00E94A309A2FE17C0A1FC03C052
S11312A088E790E002C088E590E0B6010CC08A2D82
S11312B0867859F0A1FE02C08BE201C080E2A7FC4F
S11312C08DE2B60190E00E94A309891438F4B601B6
S11312D080E390E00E94A3099A94F7CF8A94F301E3
S11312E0E80DF11D8081B60190E00E94A3098110F0
S11312F0F5CF222009F442CEB60180E290E00E94AC
S1131300A3092A94F6CFF6018681978102C08FEF54
S11313109FEF2B96E2E10C94590AFC010590615071
S113132070400110D8F7809590958E0F9F1F0895F7
S1131330FC016150704001900110D8F780959095A0
S11313408E0F9F1F08950F931F93CF93DF93FB017D
S1131350238121FD03C08FEF9FEF2CC022FF16C015
S113136046815781248135814217530744F4A08173
S1131370B1819D012F5F3F4F318320838C93268160
S113138037812F5F3F4F3783268314C08B01EC01D5
S1131390FB010084F185E02D0995892BE1F6D80144
S11313A016968D919C911797019617969C938E9300
S11313B01697CE01DF91CF911F910F910895FA01F5
S11313C0AA27283051F1203181F1E8946F936E7F80
S11313D06E5F7F4F8F4F9F4FAF4FB1E03ED0B4E071
S11313E03CD0670F781F891F9A1FA11D680F791FB2
S11313F08A1F911DA11D6A0F711D811D911DA11DC3
S113140020D009F468943F912AE0269F11243019D2
S1131410305D3193DEF6CF010895462F4770405D6D
S11314204193B3E00FD0C9F7F6CF462F4F70405D1C
S11314304A3318F0495D31FD4052419302D0A9F777
S1131440EACFB4E0A6959795879577956795BA9571
S1131450C9F700976105710508959B01AC010A2E37
S113146006945795479537952795BA95C9F7620F0E
S1131470731F841F951FA01D08952F923F924F92B2
S11314805F926F927F928F929F92AF92BF92CF9210
S1131490DF92EF92FF920F931F93CF93DF93CDB719
S11314A0DEB7CA1BDB0B0FB6F894DEBF0FBECDBF91
S11314B009942A88398848885F846E847D848C8462
S11314C09B84AA84B984C884DF80EE80FD800C816B
S11314D01B81AA81B981CE0FD11D0FB6F894DEBF4E
S10F14E00FBECDBFED010895F894FFCFBE
S11314EC54696D65203A20253032643A25303264D3
S11314FC3A25303264005374617465203A2049648F
S113150C6C65202020005374617465203A20527558
S113151C6E6E696E67005374617465203A2053745F
S113152C6F70202020005374617465203A2052653A
S113153C7365742020005374617465203A204964E7
S107154C6C650000C6
S9030000FC
